:0200000037289F
:10000800FF00030E8301AB000A08AC008A018B1CB9
:1000180013282814A601A7018B10A401A5010C1D03
:100028001D280C110C100130A0000030A1008E0119
:100038008F012C088A002B0E8300FF0E7F0E09000B
:0E004800831203132A088A0029088200080088
:1000560024208A110A128000840AA90A0319AA0A0E
:08006600F003031D2B28080024
:10006E0083120313A001A101A201A301A401A50102
:10007E00A601A70186010730831686008312870129
:10008E00FF308316870083128501831685010514C0
:10009E008514FF309F0083129F011F1083160117D6
:1000AE008B100B168B170B1783128E018F0190126C
:1000BE00101210159010101483160C14831297152D
:1000CE0017119714171083160C154B3083129500C9
:1000DE0096010708A200A30100302106031D79280E
:1000EE0001302006031DBB28A001A101281CBB283E
:1000FE0000302306031D852801302206031D8928A2
:10010E008617BB2800302306031D8F2800302206D9
:10011E00031D93288613BB2880302706F0008030FD
:10012E0023067002031D9D2822082602031CA02808
:10013E00861704302207F10023080318013EF2004F
:10014E0080307206F000803027067002031DB12841
:10015E00260871020318B828A601A70128108613D5
:0C016E00BB28A60A0319A70A7028BC28A9
:02400E005A0056
:00000001FF
