:02000000322CA0
:100006007408F8027508031C750FF9027608031CBC
:10001600760FFA027708031C770FFB02F30D073001
:10002600FC00730DF80DF90DFA0DFB0D7408731C29
:100036002A28F8027508031C750FF9027608031CB6
:10004600760FFA027708031C770FFB023728F807AA
:1000560075080318750FF90776080318760FFA075F
:1000660077080318770FFB07F30DFC0B1428720DA6
:10007600F80DF90DFA0DFB0D7408731C5028F802E3
:100086007508031C750FF9027608031C760FFA0231
:100096007708031C770FFB025D28F807750803181D
:1000A600750FF90776080318760FFA07770803180D
:1000B600770FFB07F20D0730FC00720DF80DF90DF6
:1000C600FA0DFB0D7408721C7628F8027508031CDD
:1000D600750FF9027608031C760FFA027708031CDF
:1000E600770FFB028328F80775080318750FF907C1
:1000F60076080318760FFA0777080318770FFB07B9
:10010600F20DFC0B6028710DF80DF90DFA0DFB0DC3
:100116007408721C9C28F8027508031C750FF902F6
:100126007608031C760FFA027708031C770FFB028A
:10013600A928F80775080318750FF9077608031834
:10014600760FFA0777080318770FFB07F10D0730CC
:10015600FC00710DF80DF90DFA0DFB0D7408711CFC
:10016600C228F8027508031C750FF9027608031CED
:10017600760FFA027708031C770FFB02CF28F807E1
:1001860075080318750FF90776080318760FFA072E
:1001960077080318770FFB07F10DFC0BAC28700DE1
:1001A600F80DF90DFA0DFB0D7408711CE828F8021C
:1001B6007508031C750FF9027608031C760FFA0200
:1001C6007708031C770FFB02F528F8077508031854
:1001D600750FF90776080318760FFA0777080318DC
:1001E600770FFB07F00D0730FC00700DF80DF90DC9
:1001F600FA0DFB0D7408701C0E29F8027508031C15
:10020600750FF9027608031C760FFA027708031CAD
:10021600770FFB021B29F80775080318750FF907F6
:1002260076080318760FFA0777080318770FFB0787
:10023600F00DFC0BF82870182E297408F8077508BD
:100246000318750FF90776080318760FFA0777086B
:080256000318770FFB070800F5
:10025E00FB09FA09F909F809F80A0319F90A031949
:08026E00FA0A0319FB0A08005B
:10027600831203132230FC00F801F901FA01FB0195
:10028600FC03031971290310FB0CFA0CF90CF80C8A
:10029600F30CF20CF10CF00C031C4329FC030319BC
:1002A60063297408F80775080318750FF9077608A7
:1002B6000318760FFA0777080318770FFB07472905
:1002C6007408F80775080318750FF90776080318F8
:0E02D600760FFA0777080318770FFB0708006A
:1002E400403083120313F0001F30F100F201F301D8
:0202F400080000
:1002F600831203137408003A031D96297508003A01
:10030600031D96297608003A031D96297708003AB8
:10031600031D9629FF30F000FF30F100FF30F20098
:100326007F30F3002F2A83120313FC01F71BFC0A0C
:10033600FD01FB01FA01F901F80173087204710469
:10034600700403192A2A73087706A000A01BFD096A
:10035600F71FB829F409F509F609F709F40A03198C
:10036600F50A0319F60A0319F70AF31FC529F00956
:10037600F109F209F309F00A0319F10A0319F20A5D
:100386000319F30A73087704A000A01BE6290320CB
:10039600FC1B032AFD1F2A2AF009F109F209F309B9
:1003A600F00A0319F10A0319F20A0319F30AF80904
:1003B600F909FA09FB09F80A0319F90A0319FA0AED
:1003C6000319FB0A2A2AF71FFD29F31BF7297308CD
:1003D600FB007208FA007108F9007008F800F301D2
:1003E600F201F101F001CD29F301F201F101F00171
:1003F600F00A0034F309F209F109F009FC17CA29D9
:10040600F80A0319F90A0319FA0A0319FB0A740808
:100416007802031DCD2975087902031DCD297608BA
:100426007A02031DCD2977087B02031DCD29FB0126
:10043600FA01F901F801F00A0319F10A0319F20A9F
:100446000319F30AF31FCD29A0012016FF34A001DA
:0A0456007C1C2E2A2F21003E080016
:0E046000831203132E088A002D088200080064
:10046E00831203133108A3003208F0000130F200AA
:10047E0070080319462AF20D7210FF3E402A7208C8
:10048E00A5007209A6003308F1000130F0007108D2
:10049E000319552AF00D7010FF3E4F2A7008A40064
:1004AE00F0097008A70080303107840072088004BC
:1004BE0070088005AB0138080319662AAB0984134E
:1004CE002B08003A03196E2A27088005702A240883
:1004DE0080047221E830F4000330F500F601F701D4
:1004EE003B217008C3007108C4007208C500730870
:1004FE00C6004308B9004408BA004508BB004608C8
:10050E00BC003408F0003508F1003608F200370858
:10051E00F300F00DF10DF20DF30D7010F00DF10D65
:10052E00F20DF30D70100A30F400F501F601F7012B
:10053E003B217008BD007108BE007208BF00730831
:10054E00C0007008F4007108F5007208F600730818
:10055E00F7004308F0004408F1004508F200460891
:10056E00F3007B217008C1007108C2007108F4000D
:10057E00F501740875040319C72A0230F0001C2B0C
:10058E004108A8003D08F4003E08F5003F08F600BB
:10059E004008F7003908F0003A08F1003B08F20075
:1005AE003C08F3007B217808F0007908F1007A0806
:1005BE00F2007B08F3007008B9007108BA007208E7
:1005CE00BB007308BC003D08F5003E08F6003F086E
:1005DE00F7004008F800F80CF70CF60CF50CF813C1
:1005EE00781BF81780307806F4008030730674029A
:1005FE00031D0B2B72087702031D0B2B710876025D
:10060E00031D0B2B7008750203180E2BA80A280861
:10061E00F100F10CF1137108AC00073071020318F0
:0C062E001B2B0130F0001C2BF001080019
:10063A0083120313B103B1033108003C03182A2BB8
:10064A00B103000000000000212B000000000000A0
:06065A0000000000080092
:10066000013083120313B0002B08AF062308840067
:100670002B08003A03193F2B24088004412B27083C
:1006800080052808B1001D23AF09300803195D2B30
:1006900030082F05F000031D502B24088004522B36
:1006A00027088005B00D301002302802B1001D234C
:1006B0000000000000000000452B2B08003A031941
:1006C000642B27088005662B240880042808B100C5
:0406D0001D230800DE
:1006D40010308312031386000330FC009730FD00B2
:1006E400FD0B722BFC0B722B00000000061C7D2BF3
:1006F4003130F000EE2B861C822B3230F000EE2BD2
:10070400061D872B3330F000EE2B861D8C2B4130D9
:10071400F000EE2B203086000330FC009730FD0003
:10072400FD0B922BFC0B922B00000000061C9D2B52
:100734003430F000EE2B861CA22B3530F000EE2B6B
:10074400061DA72B3630F000EE2B861DAC2B423055
:10075400F000EE2B403086000330FC009730FD00A3
:10076400FD0BB22BFC0BB22B00000000061CBD2BB2
:100774003730F000EE2B861CC22B3830F000EE2B05
:10078400061DC72B3930F000EE2B861DCC2B4330D1
:10079400F000EE2B803086000330FC009730FD0023
:1007A400FD0BD22BFC0BD22B00000000061CDD2B12
:1007B4004530F000EE2B861CE22B3030F000EE2B9F
:1007C400061DE72B4630F000EE2B861DEC2B443043
:0A07D400F000EE2BFF30F0000800EB
:1007DE0030228A110A128000840AAD0A0319AE0A69
:0807EE00F003031DEF2B0800CE
:1007F600831603138701831287011F10FF308316A8
:100806009F000511851105128512831285010F308F
:1008160083168600F030831286000530B100B201DF
:100826000130B3008030B4002530B500B601B70101
:10083600B80137227008A2007008003C0318242C67
:10084600232C0230FB000430FC00BA30FD00FD0B07
:0E0856002A2CFC0B2A2CFB0B2A2C000008007D
:10086400303083120313A100FB237A30A9004130F6
:100874002902031C4F2C2908AF0030230230FB004F
:100884000430FC00BA30FD00FD0B462CFC0B462C5A
:10089400FB0B462C0000A903392C6A237008A10025
:1008A4007008FF3A0319B32C2108AA002108313A31
:1008B400031D5D2C05152108323A031D622C051118
:1008C4002108343A031D672C85152108353A031D88
:1008D4006C2C85112108373A031D712C051621084B
:1008E400383A031D762C05122108453A031D7B2C4A
:1008F40085162108303A031D802C85122108333ACD
:10090400031D862C013087002108413A031D8C2CDD
:10091400213087002108363A031D922C423087008B
:100924002108423A031D982C633087002108393A84
:10093400031D9E2C843087002108433A031DA42CF8
:10094400A53087002108463A031DAA2CB43087003D
:100954002108443A031DAF2C87016A237008AF00B5
:0609640030234F2CB42CDF
:02400E005A0056
:00000001FF
