:02000000C62810
:10000800FF00030E8301B3000A08B4008A018B1CA9
:1000180016280130AE000030AF00AC01AD018B10E6
:10002800A001A1010C1D20280C110C100130AA0000
:100038000030AB008E018F0134088A00330E830034
:06004800FF0E7F0E09000F
:10004E008316031398182D280000272883123808CA
:04005E0099000800FD
:1000620083120313B701350884000008B60036086E
:10007200003A031946283608B8002720B70A37087D
:0C008200350784000008B600382808008C
:0E008E008312031332088A0031088200080032
:10009C0083160313981690308312980083168614D7
:1000AC00061183128C1E5D281A08F00057280800D0
:1000BC00831203131A08F100981C662818121816DC
:0600CC007108F0000800BD
:1000D2008312031385018316850105148514051106
:1000E20085110512851203308600861106168616C2
:1000F2000617861783128601831601178B100B16BB
:100102008B170B1783128E018F0190121012901011
:10011200101483160C1483129715171197141710C5
:1001220083160C154B3083129500960133308316DB
:10013200990018154E200230FB000430FC00BA3042
:10014200FD00FD0BA228FC0BA228FB0BA22800003D
:100152002430B50031200A30B80027200D30B80015
:04016200272008004A
:0E0166000030831203138C1A0130F0000800E1
:1001740047208A110A128000840AB10A0319B20ABC
:08018400F003031DBA28080076
:10018C0083120313A001A101A201A3015330A40007
:10019C007430A5006130A6007230A7007430A8003E
:1001AC00A901AA01AB01AC01AD01AE01AF016920FF
:1001BC00B32070080319E8285E207008B00070089E
:1001CC00B80027203008413A031DED28851530086A
:1001DC00423A031DF22885113008433A031DF728D3
:1001EC0005163008443A031DFC2805123008453A20
:1001FC00031D012986153008463A031D0629861170
:10020C003008313A031D0E290A30A2000030A30039
:10021C003008323A031D16291630A2000030A30014
:10022C003008333A031D1E292130A2000030A300F0
:10023C003008343A031D26294230A2000030A300B6
:10024C003008353A031D2E295830A2000030A30087
:10025C003008363A031D36297830A2000030A3004E
:10026C003008373A031D3D299630A200A30130080F
:10027C00383A031D4329A201A301B00100302B061B
:10028C00031D4A2901302A06031D9229AA01AB013C
:10029C0000302F06031D542901302E06031D922910
:1002AC0000302306031D5C2901302206031D5F2943
:1002BC00051500302306031D652900302206031D99
:1002CC0069290511922980302D06F0008030230613
:1002DC007002031D732922082C02031C76290515B4
:1002EC0004302207F10023080318013EF20080308D
:1002FC007206F00080302D067002031D87292C0831
:10030C00710203188F29AC01AD01AE01AF010511CB
:0C031C009229AC0A0319AD0ADE289329CF
:02400E004A2145
:00000001FF
