:02000000C32813
:10000800FF00030E8301CE000A08CD008A018B1C75
:1000180013284914AA01AB018B10AC01AD010C1DCA
:100028001D280C110C100130A4000030A5008E0111
:100038008F014D088A004E0E8300FF0E7F0E0900C7
:100048008316031398182A280000242883125308BB
:040058009900080003
:10005C0083120313D201500884000008D100510808
:10006C00003A031943285108D3002420D20A52081D
:0C007C00500784000008D100352808005F
:0E008800831203134B088A004A088200080006
:1000960083160313981690308312980083168614DD
:1000A600061183128C1E5A281A08F00054280800DC
:1000B600831203131A08F100981C632818121816E5
:0600C6007108F0000800C3
:1000CC00831203138501831685010514851405110C
:1000DC0085110512851203308600861106168616C8
:1000EC000617861783128601831601178B100B16C1
:1000FC008B170B1783128E018F0190121012901018
:10010C00101483160C1483129715171197141710CB
:10011C0083160C154B3083129500960133308316E1
:10012C00990018154B200230FB000430FC00BA304B
:10013C00FD00FD0B9F28FC0B9F28FB0B9F2800004C
:10014C003030D0002E200A30D30024200D30D300C4
:04015C002420080053
:0E0160000030831203138C1A0130F0000800E7
:10016E0044208A110A128000840ACA0A0319CB0A93
:08017E00F003031DB72808007F
:100186004C236620B02070080319E9283908383E48
:10019600CF005B204F088400700880003908383E85
:1001A60084000008D30024203908383E8400000863
:1001B6004B3A031DE6283830D0002E20B90A031921
:1001C600BA0AB901BA01B90A0319BA0A4C08413A7E
:1001D600031DFA2808304304F0004408F1000030FB
:1001E600F1047008C3007108C400700885004C084B
:1001F600423A031D0F2908304305F0004408F10078
:100206000030F1054308F0064408F1067008C30003
:100216007108C400700885004C08433A031D202964
:1002260010304304F0004408F1000030F104700877
:10023600C3007108C400700885004C08443A031DC9
:10024600352910304305F0004408F1000030F1056F
:100256004308F0064408F1067008C3007108C4009C
:10026600700885004C08453A031D462904304304AE
:10027600F0004408F1000030F1047008C300710872
:10028600C400700885004C08463A031D5B290430FB
:100296004305F0004408F1000030F1054308F0067C
:1002A6004408F1067008C3007108C4007008850090
:1002B6004C08313A031D63290A30BF000030C000E4
:1002C6004C08323A031D6B291630BF000030C000BF
:1002D6004C08333A031D73292130BF000030C0009B
:1002E6004C08343A031D7B294230BF000030C00061
:1002F6004C08353A031D83295830BF000030C00032
:100306004C08363A031D8B297830BF000030C000F8
:100316004C08373A031D92299630BF00C0014C089D
:10032600383A031D9829BF01C001CC0100302506CB
:10033600031D9F2901302406031D182AA401A501C7
:10034600491C182A00304006031DAB2901303F0620
:10035600031DBA2908302004F0002108F1000030FE
:10036600F1047008A0007108A10070088600003032
:100376004006031DC02900303F06031DD42908305E
:100386002005F0002108F1000030F1052008F006F4
:100396002108F1067008A0007108A1007008860007
:1003A600182A80302B06F000803040067002031DAC
:1003B600DE293F082A02031CED2908302004F0003C
:1003C6002108F1000030F1047008A0007108A100B6
:1003D6007008860004303F07F10040080318013E0C
:1003E600F20080307206F00080302B067002031D8A
:1003F600FE292A0871020318152AAA01AB01491021
:1004060008302005F0002108F1000030F105200831
:10041600F0062108F1067008A0007108A100700816
:100426008600182AAA0A0319AB0A051C2B2A0030D3
:100436002906031D202A00302806031D2A2A0A3011
:10044600BF070318C00A0130A8000030A9002D2AF2
:10045600A801A901851C402A00302706031D352A5C
:1004660000302606031D3F2A0A30BF02031CC003C4
:100476000130A6000030A700422AA601A701861F68
:100486007E2A00304606031D4A2A00304506031D13
:100496007D2A0130C5000030C60000304806031D25
:1004A600562A00304706031D6A2A0130C70000306D
:1004B600C80008304304F0004408F1000030F1049D
:1004C6007008C3007108C400700885007D2AC70142
:1004D600C80108304305F0004408F1000030F1057A
:1004E6004308F0064408F1067008C3007108C4000A
:1004F60070088500802AC501C601061FBC2A003087
:100506002F06031D882A00302E06031DBB2A013044
:10051600AE000030AF0000302306031D942A0030E1
:100526002206031DA82A0130A2000030A3001030C5
:100536004304F0004408F1000030F1047008C300E1
:100546007108C40070088500BB2AA201A3011030FF
:100556004305F0004408F1000030F1054308F006B9
:100566004408F1067008C3007108C40070088500CD
:10057600BE2AAE01AF01861EFA2A00303706031DD9
:10058600C62A00303606031DF92A0130B6000030AF
:10059600B70000304206031DD22A00304106031D73
:1005A600E62A0130C1000030C20004304304F000E6
:1005B6004408F1000030F1047008C3007108C4005B
:1005C60070088500F92AC101C20104304305F00014
:1005D6004408F1000030F1054308F0064408F1062E
:1005E6007008C3007108C40070088500FC2AB601B3
:1005F600B701061E1A2B00303C06031D042B0030E3
:100606003B06031D192B0130BB000030BC00003037
:100616003E06031D102B00303D06031D172B01302F
:10062600BD000030BE00192BBD01BE011C2BBB0155
:06063600BC01C5281D2BCC
:1006980020308400293083120313F0002330CA006D
:0806A8000330CB00B72008006D
:040646000034003448
:04064A000034003444
:04064E000034003440
:04065200003400343C
:040656000034003438
:04065A000034003434
:04065E000034003430
:04066200003400342C
:0C06660053347434613472347434003442
:04067200003400341C
:0206760000344E
:040678000034003416
:04067C000034003412
:04068000003400340E
:04068400003400340A
:040688000034003406
:04068C000034003402
:0406900000340034FE
:0406940000340034FA
:02400E006A2125
:00000001FF
