:020000007E2858
:1000060083160313981809280000032883122E0864
:040016009900080045
:10001A0083120313AD012B0884000008AC002C08DE
:10002A00003A031922282C08AE000320AD0A2D0835
:0C003A002B0784000008AC00142808000C
:0E004600831203132A088A002908820008008A
:10005400831603139816903083129800831686141F
:10006400061183128C1E39281A08F0003328080060
:10007400831203131A08F100981C42281812181648
:060084007108F000080005
:10008A0083160313850183128501033083168600C4
:10009A008312860133308316990018152A200230FC
:1000AA00FB000430FC00BA30FD00FD0B5A28FC0BA3
:1000BA005A28FB0B5A2800002230AB000D200A30C8
:0C00CA00AE0003200D30AE000320080043
:0E00D6000030831203138C1A0130F000080072
:1000E40023208A110A128000840AA90A0319AA0A81
:0800F400F003031D722808004F
:1000FC0083120313A001A1015330A2007430A3009A
:10010C006130A4007230A5007430A600A701452010
:10011C006B207008031998283A207008A800700802
:10012C00AE0003202808413A031DA92808302004FA
:10013C00F0002108F1000030F1047008A0007108F3
:10014C00A100700885002808423A031DBE2808301B
:10015C002005F0002108F1000030F1052008F00620
:10016C002108F1067008A0007108A1007008850034
:10017C002808433A031DCF2810302004F000210832
:10018C00F1000030F1047008A0007108A1007008A3
:10019C0085002808443A031DE42810302005F0009F
:1001AC002108F1000030F1052008F0062108F106C5
:1001BC007008A0007108A100700885002808453A55
:1001CC00031DF52804302004F0002108F100003054
:1001DC00F1047008A0007108A100700885002808BF
:1001EC00463A031D0A2904302005F0002108F100CD
:1001FC000030F1052008F0062108F1067008A00077
:0E020C007108A10070088500A8018E280C2939
:02400E004A2145
:00000001FF
