:0200000037299E
:10000800FF00030E8301E2000A08E1008A018B1C4D
:1000180013286014BB01BC018B10AB01AC010C1D93
:100028002028BB0A0319BC0A0C110C100130C900A6
:100038000030CA008E018F0161088A00620E8300B9
:06004800FF0E7F0E09000F
:10004E008316031398182D280000272820088312E2
:04005E0099000800FD
:0E0062000030831203138C1A0130F0000800E6
:0E0070008312031364088A00630882000800EC
:10007E00831203131A08F100981C47281812181639
:06008E007108F0000800FB
:1000940083160313981690308312980083168614DF
:1000A400061183128C1E59281A08F00053280800E0
:1000B40083120313EF016D0884000008EE006E083C
:1000C400003A031970286E088316A0002720EF0A4F
:0E00D4006F086D0784000008EE006128080028
:1000E20083120313EB01EC0169080319B0286908B4
:1000F200FF3A03197D28E90331207008003A031DF5
:1001020083287D283F207008EA006B086707840077
:1001120070088000EB0A6C086807840000086A0611
:10012200031D9528EC0A9D28EC016808840000084C
:100132006A06031D9D28EC0A6C0868078400000803
:10014200003A031DAF286C086B02F000F101031C9A
:10015200F1037008670784008001B32875286708D7
:060162008400800108008A
:10016800831203138501831685010514851405116F
:10017800851105128512033086008611061686162B
:100188000617861783128601831601178B100B1624
:100198008B170B1783128E018F019012101290107B
:1001A800101483160C14831297151711971417102F
:1001B80083160C154B308312950096013330831645
:1001C800990018154A200230FB000430FC00BA30B0
:1001D800FD00FD0BED28FC0BED28FB0BED280000C6
:1001E8002030ED005A200A308316A00027200D3059
:0801F8008316A0002720080077
:1002000083120313FB01FA01F9018030F800F10CAD
:10021000F00C031C14297408F90775080318750FEE
:10022000FA070318FB0A0310F01F1C297408FA07C9
:1002300075080318750FFB07FB0CFA0CF90CF80C8A
:10024000031C07297B08F3007A08F2007908F10003
:060250007808F000080030
:1002560038208A110A128000840AE30A0319E40A84
:08026600F003031D2B29080021
:10026E00AC23B42031207008031949294B30E70024
:10027E002830E8001430E90071204B30ED005A2090
:10028E004B08DF005F08413A031D5A290830370436
:10029E00F0003808F1000030F1047008B700710862
:1002AE00B800700885005F08423A031D6F290830B8
:1002BE003705F0003808F1000030F1053708F00678
:1002CE003808F1067008B7007108B800700885008C
:1002DE005F08433A031D802910303704F0003808B8
:1002EE00F1000030F1047008B7007108B800700812
:1002FE0085005F08443A031D952910303705F0003C
:10030E003808F1000030F1053708F0063808F1061C
:10031E007008B7007108B800700885005F08453A8C
:10032E00031DA62904303704F0003808F100003010
:10033E00F1047008B7007108B800700885005F08F6
:10034E00463A031DBB2904303705F0003808F1008A
:10035E000030F1053708F0063808F1067008B700CE
:10036E007108B800700885004B08533A031DF72931
:10037E0030304C02F000F101031CF1036430F40044
:10038E000030F50000217008E5007108E6003030FD
:10039E004D02F000F101031CF1030A30F4000030AD
:1003AE00F500002170086507F20066080318013E8B
:1003BE007107F30030304E02F000F101031CF1031F
:1003CE007208F00773080318013EF1077008C700A2
:1003DE007108C8007008C5007108C6000330CB0054
:1003EE00DF0100304A06031DFE2901304906031DB8
:1003FE00732AC901CA01601C732A00304606031D08
:10040E000A2A01304506031D192A08304304F0005C
:10041E004408F1000030F1047008C3007108C400F4
:10042E007008860000304606031D1F2A0030450660
:10043E00031D332A08304305F0004408F100003054
:10044E00F1054308F0064408F1067008C300710870
:10045E00C40070088600732A80303C06F00080309D
:10046E0046067002031D3D2A45083B02031C4C2A1A
:10047E0008304304F0004408F1000030F104700825
:10048E00C3007108C4007008860004304507F100EF
:10049E0046080318013EF20080307206F0008030EC
:1004AE003C067002031D5D2A3B0871020318732A75
:1004BE00BB01BC01601008304305F0004408F10098
:1004CE000030F1054308F0064408F1067008C30039
:1004DE007108C40070088600051C862A00303A0692
:1004EE00031D7B2A00303906031D852A0A30C507F5
:1004FE000318C60A0130B9000030BA00882AB901C3
:10050E00BA01851C9B2A00303E06031D902A00303E
:10051E003D06031D9A2A0A30C502031CC60301308C
:10052E00BD000030BE009D2ABD01BE01861FD92A26
:10053E0000304206031DA52A00304106031DD82AAD
:10054E000130C1000030C20000304006031DB12A48
:10055E0000303F06031DC52A0130BF000030C00029
:10056E0008303704F0003808F1000030F10470084C
:10057E00B7007108B80070088500D82ABF01C00105
:10058E0008303705F0003808F1000030F105370863
:10059E00F0063808F1067008B7007108B800700848
:1005AE008500DB2AC101C201061F172B003032065F
:1005BE00031DE32A00303106031D162B0130B10056
:1005CE000030B20000302E06031DEF2A00302D063B
:1005DE00031D032B0130AD000030AE001030370488
:1005EE00F0003808F1000030F1047008B70071080F
:1005FE00B80070088500162BAD01AE01103037051E
:10060E00F0003808F1000030F1053708F006380820
:10061E00F1067008B7007108B80070088500192B34
:10062E00B101B201861E552B00302706031D212B6A
:10063E0000302606031D542B0130A6000030A70003
:10064E0000303406031D2D2B00303306031D412BC5
:10065E000130B3000030B40004303704F000380825
:10066E00F1000030F1047008B7007108B80070088E
:10067E008500542BB301B40104303705F00038085F
:10068E00F1000030F1053708F0063808F106700861
:10069E00B7007108B80070088500572BA601A70196
:1006AE00061E772B00303606031D5F2B00303506F5
:1006BE00031D762B0130B5000030B6000030300639
:1006CE00031D6B2B00302F06031D742B0130AF0062
:1006DE000030B000C501C601762BAF01B001792BF9
:0806EE00B501B60139297A2B90
:10075800203084002B3083120313F0008030E30034
:080768000330E4002B2108001E
:020006000034C4
:0C070000533474346134723474340034A7
:04070C000034003481
:060710004F344B340034AD
:040716000034003477
:04071A000034003473
:04071E00003400346F
:04072200003400346B
:040726000034003467
:04072A000034003463
:04072E00003400345F
:04073200003400345B
:040736000034003457
:04073A000034003453
:04073E00003400344F
:04074200003400344B
:040746000034003447
:04074A000034003443
:04074E00003400343F
:04075200003400343B
:02400E004A2145
:00000001FF
