:020000008E2C44
:10000800FF00030E8301B0000A08AF008A010C1C30
:1000180011288A240C108E018F012F088A00300EB7
:080028008300FF0E7F0E0900AA
:100030007408F8027508031C750FF9027608031C92
:10004000760FFA027708031C770FFB02F30D0730D7
:10005000FC00730DF80DF90DFA0DFB0D7408731CFF
:100060003F28F8027508031C750FF9027608031C77
:10007000760FFA027708031C770FFB024C28F8076B
:1000800075080318750FF90776080318760FFA0735
:1000900077080318770FFB07F30DFC0B2928720D67
:1000A000F80DF90DFA0DFB0D7408731C6528F802A4
:1000B0007508031C750FF9027608031C760FFA0207
:1000C0007708031C770FFB027228F80775080318DE
:1000D000750FF90776080318760FFA0777080318E3
:1000E000770FFB07F20D0730FC00720DF80DF90DCC
:1000F000FA0DFB0D7408721C8B28F8027508031C9E
:10010000750FF9027608031C760FFA027708031CB4
:10011000770FFB029828F80775080318750FF90781
:1001200076080318760FFA0777080318770FFB078E
:10013000F20DFC0B7528710DF80DF90DFA0DFB0D84
:100140007408721CB128F8027508031C750FF902B7
:100150007608031C760FFA027708031C770FFB0260
:10016000BE28F80775080318750FF90776080318F5
:10017000760FFA0777080318770FFB07F10D0730A2
:10018000FC00710DF80DF90DFA0DFB0D7408711CD2
:10019000D728F8027508031C750FF9027608031CAE
:1001A000760FFA027708031C770FFB02E428F807A2
:1001B00075080318750FF90776080318760FFA0704
:1001C00077080318770FFB07F10DFC0BC128700DA2
:1001D000F80DF90DFA0DFB0D7408711CFD28F802DD
:1001E0007508031C750FF9027608031C760FFA02D6
:1001F0007708031C770FFB020A29F8077508031814
:10020000750FF90776080318760FFA0777080318B1
:10021000770FFB07F00D0730FC00700DF80DF90D9E
:10022000FA0DFB0D7408701C2329F8027508031CD5
:10023000750FF9027608031C760FFA027708031C83
:10024000770FFB023029F80775080318750FF907B7
:1002500076080318760FFA0777080318770FFB075D
:10026000F00DFC0B0D29701843297408F807750868
:100270000318750FF90776080318760FFA07770841
:080280000318770FFB070800CB
:10028800FB09FA09F909F809F80A0319F90A03191F
:08029800FA0A0319FB0A080031
:1002A000831203132230FC00F801F901FA01FB016B
:1002B000FC03031986290310FB0CFA0CF90CF80C4B
:1002C000F30CF20CF10CF00C031C5829FC0303197D
:1002D00078297408F80775080318750FF907760868
:1002E0000318760FFA0777080318770FFB075C29C6
:1002F0007408F80775080318750FF90776080318CE
:0E030000760FFA0777080318770FFB0708003F
:10030E00403083120313F0001F30F100F201F301AD
:02031E000800D5
:10032000831203137408003A031DAB297508003AC1
:10033000031DAB297608003A031DAB297708003A64
:10034000031DAB29FF30F000FF30F100FF30F20059
:100350007F30F300442A83120313FC01F71BFC0ACD
:10036000FD01FB01FA01F901F8017308720471043F
:10037000700403193F2A73087706A000A01BFD092B
:10038000F71FCD29F409F509F609F709F40A03194D
:10039000F50A0319F60A0319F70AF31FDA29F00917
:1003A000F109F209F309F00A0319F10A0319F20A33
:1003B0000319F30A73087704A000A01BFB29182077
:1003C000FC1B182AFD1F3F2AF009F109F209F30965
:1003D000F00A0319F10A0319F20A0319F30AF809DA
:1003E000F909FA09FB09F80A0319F90A0319FA0AC3
:1003F0000319FB0A3F2AF71F122AF31B0C2A730862
:10040000FB007208FA007108F9007008F800F301A7
:10041000F201F101F001E229F301F201F101F00131
:10042000F00A0034F309F209F109F009FC17DF2999
:10043000F80A0319F90A0319FA0A0319FB0A7408DE
:100440007802031DE22975087902031DE229760866
:100450007A02031DE22977087B02031DE229FB01D2
:10046000FA01F901F801F00A0319F10A0319F20A75
:100470000319F30AF31FE229A0012016FF34A0019B
:0A0480007C1C432A4421003E0800C2
:10048A0083120313B403B4033408003C0318522A3A
:10049A00B403000000000000492A00000000000028
:0604AA0000000000080044
:1004B000831203133408AB003508F0000130F2005A
:1004C00070080319672AF20D7210FF3E612A720844
:1004D000AE007209A3003608F1000130F000710887
:1004E0000319762AF00D7010FF3E702A7008A200E2
:1004F000F0097008A400803034078400720880047A
:1005000070088005AD013B080319872AAD098413E3
:100510002D08003A03198F2A24088005912A220801
:1005200080048721E830F4000330F500F601F7017C
:1005300050217008C6007108C7007208C80073080F
:10054000C9004608BC004708BD004808BE0049086D
:10055000BF003708F0003808F1003908F2003A0807
:10056000F300F00DF10DF20DF30D7010F00DF10D23
:10057000F20DF30D70100A30F400F501F601F701E9
:1005800050217008C0007108C1007208C2007308D1
:10059000C3007008F4007108F5007208F6007308D3
:1005A000F7004608F0004708F1004808F200490843
:1005B000F30090217008C4007108C5007108F400B0
:1005C000F501740875040319E82A0230F0003D2B88
:1005D0004408A7004008F4004108F5004208F6006E
:1005E0004308F7003C08F0003D08F1003E08F20027
:1005F0003F08F30090217808F0007908F1007A08AC
:10060000F2007B08F3007008BC007108BD0072089E
:10061000BE007308BF004008F5004108F60042081C
:10062000F7004308F800F80CF70CF60CF50CF8137B
:10063000781BF81780307806F40080307306740257
:10064000031D2C2B72087702031D2C2B71087602D8
:10065000031D2C2B7008750203182F2BA70A2708DF
:10066000F100F10CF1137108AC00073071020318AE
:0C0670003C2B0130F0003D2BF001080095
:0E067C008312031326088A0025088200080056
:10068A0010308312031386000330FC009730FD00FC
:10069A00FD0B4D2BFC0B4D2B00000000061C582BAC
:1006AA003130F000C92B861C5D2B3230F000C92B8B
:1006BA00061D622B3330F000C92B861D672B413093
:1006CA00F000C92B203086000330FC009730FD0073
:1006DA00FD0B6D2BFC0B6D2B00000000061C782B0C
:1006EA003430F000C92B861C7D2B3530F000C92B25
:1006FA00061D822B3630F000C92B861D872B42300F
:10070A00F000C92B403086000330FC009730FD0012
:10071A00FD0B8D2BFC0B8D2B00000000061C982B6B
:10072A003730F000C92B861C9D2B3830F000C92BBE
:10073A00061DA22B3930F000C92B861DA72B43308A
:10074A00F000C92B803086000330FC009730FD0092
:10075A00FD0BAD2BFC0BAD2B00000000061CB82BCB
:10076A004530F000C92B861CBD2B3030F000C92B58
:10077A00061DC22B4630F000C92B861DC72B4430FC
:0A078A00F000C92BFF30F00008005A
:10079400831203133108840080010130B300B201D5
:1007A40029102B0884002D08003A031DEB2B2E087A
:1007B4000005F1007108003A0319EA2B291CE92B02
:1007C40031088400FF3080003208F0003D2CD92B22
:1007D400FC2B2E080005F1007108003A031DFC2BC8
:1007E400291CFB2B31088400FF3080003208F00004
:1007F4003D2CEB2B2C08B40045222708B4004522DD
:1008040033080319192C2E080005F1007108003A69
:1008140003190E2C3308B204B30D3310023027022F
:10082400B40045220000000000000000022C2D0846
:10083400003A031D2B2C2E080005F1007108003A24
:100844000130031D0030F00031088400700880007E
:10085400382C2E080005F1007108003A0130031904
:100864000030F00031088400700880002D08320642
:08087400F0007008B20008005A
:10087C003E238A110A128000840AA50A0319A60ACB
:08088C00F003031D3E2C0800DF
:10089400831603138701831287011F10FF30831609
:1008A4009F000511851105128512831285010F30F1
:1008B40083168600F030831286000B178B108B177B
:1008C40090121012901083160C1405308312B40089
:1008D400B5010130B6008030B7002530B800B90149
:1008E400BA01BB0158227008AA007008003C031822
:1008F4007C2C7B2C0230FB000430FC00BA30FD0061
:10090400FD0B822CFC0B822CFB0B822C00000800BC
:080914008312031329140800EB
:10091C00303083120313A1004A2445237008A10030
:10092C007008FF3A0319F32C2108A8002108313A6A
:10093C00031DA12C05152108323A031DA62C051107
:10094C002108343A031DAB2C85152108353A031DBB
:10095C00B02C85112108373A031DB52C051621083A
:10096C00383A031DBA2C05122108453A031DBF2C39
:10097C0085162108303A031DC42C85122108333A00
:10098C00031DCA2C013087002108413A031DD02CCD
:10099C00213087002108363A031DD62C42308700BF
:1009AC002108423A031DDC2C633087002108393AB8
:1009BC00031DE22C843087002108433A031DE82CE8
:1009CC00A53087002108463A031DEE2CB430870071
:1009DC002108443A031DF32C870110142A30B1006E
:1009EC00CA237008A80010107008003A03194B2D88
:1009FC002808413A031D032D05152808423A031D0A
:100A0C00082D05112808433A031D0D2D85152808BE
:100A1C00443A031D122D85112808453A031D172D44
:100A2C0085162808463A031D1C2D85122808313AD4
:100A3C00031D222D013087002808323A031D282D72
:100A4C00213087002808333A031D2E2D42308700B1
:100A5C002808343A031D342D633087002808353AB2
:100A6C00031D3A2D843087002808363A031D402D8B
:100A7C00A53087002808373A031D462DB43087006F
:0E0A8C002808383A031D4B2D8701932C4C2D62
:02400E005A0056
:00000001FF
