:0200000058297D
:10000800FF00030E8301E6000A08E7008A01700872
:10001800A0008B1C1A285014C601C7018B10AF0111
:10002800B00195014A3096008E018F010C1D3E28C3
:100038000C110C10501C3E2800302606031D2628E3
:1000480001302506031D32280130C8000030C900E0
:10005800C8309500FF3096008E018F0100302606CB
:10006800031D382800302506031D3E280130A7004F
:100078000030A8002008F00067088A00660E830098
:06008800FF0E7F0E0900CF
:10008E008316031398184D2800004728230883125F
:04009E0099000800BD
:0E00A2000030831203138C1A0130F0000800A6
:0E00B0008312031369088A00680882000800A2
:1000BE00831203131A08F100981C672818121816D9
:0600CE007108F0000800BB
:1000D400831603139816903083129800831686149F
:1000E400061183128C1E79281A08F0007328080060
:1000F40083160313A201200884000008A10021082C
:10010400003A031990282108A30047208316A20A65
:0E0114002208200784000008A10081280800AE
:1001220083120313EE01EF016C080319D0286C0847
:10013200FF3A03199D28EC0351207008003A031D71
:10014200A3289D285F207008ED006E086A078400CE
:1001520070088000EE0A6F086B07840000086D06C5
:10016200031DB528EF0ABD28EF016B0884000008C3
:100172006D06031DBD28EF0A6F086B078400000897
:10018200003A031DCF286F086E02F000F101031C34
:10019200F10370086A0784008001D32895286A0851
:0601A2008400800108004A
:1001A800831203138501831685010514851405112F
:1001B80085110512851203308600861106168616EB
:1001C8000617861783128601831601178B100B16E4
:1001D8008B170B1783128E018F019012101290103B
:1001E800101483160C1483129715171197141710EF
:1001F80083160C15FF3083129500FF3096003330BC
:100208008316990018156A200230FB000430FC00A0
:10021800BA30FD00FD0B0E29FC0B0E29FB0B0E2935
:10022800000029308316A0007A200A30A300472056
:0A0238000D308316A30047200800D4
:1002420083120313FB01FA01F9018030F800F10C6B
:10025200F00C031C35297408F90775080318750F8B
:10026200FA070318FB0A0310F01F3D297408FA0766
:1002720075080318750FFB07FB0CFA0CF90CF80C48
:10028200031C28297B08F3007A08F2007908F100A0
:060292007808F0000800EE
:1002980058208A110A128000840AE80A0319E90A18
:0802A800F003031D4C290800BE
:1002B0008A23D4205120700803196C295130EA0098
:1002C0003330EB001430EC00912051308316A00045
:1002D0007A2083125108E5006508413A031D7D2903
:1002E00008303104F0003208F1000030F1047008E9
:1002F000B1007108B200700885006508423A031D1C
:10030000922908303105F0003208F1000030F10583
:100310003108F0063208F1067008B1007108B20029
:10032000700885006508433A031DA3291030310485
:10033000F0003208F1000030F1047008B1007108DB
:10034000B200700885006508443A031DB8291030D2
:100350003105F0003208F1000030F1053108F006F7
:100360003208F1067008B1007108B200700885000B
:100370006508453A031DC92904303104F0003208EC
:10038000F1000030F1047008B1007108B20070088B
:1003900085006508463A031DDE2904303105F0006A
:1003A0003208F1000030F1053108F0063208F1069C
:1003B0007008B1007108B200700885005108533A06
:1003C000031D012A30305202F000F101031CF10339
:1003D0000A30F4000030F500212130305302F200E1
:1003E000F301031CF3037208F00773080318013EBE
:1003F000F1077008A3007108A4007008A10071083B
:10040000A200E501501C4F2A00302206031D0A2AD3
:1004100001302106031D0C2A00302206031D122A7A
:1004200000302106031D142A00302806031D1A2A55
:1004300001302706031D2F2A0130A5000030A60039
:10044000A701A80108303604F0003708F100003099
:10045000F1047008B6007108B7007008860000301B
:100460004906031D352A01304806031D4F2AC801DD
:10047000C901A501A601C601C70150100830360503
:10048000F0003708F1000030F1053608F0063708B3
:10049000F1067008B6007108B70070088600051CE8
:1004A000622A00304506031D572A00304406031D0A
:1004B000612A0A30A1070318A20A0130C4000030E3
:1004C000C500642AC401C501851C772A00304F0687
:1004D000031D6C2A00304E06031D762A0A30A10245
:1004E000031CA2030130CE000030CF00792ACE01D8
:1004F000CF01861FB52A00304D06031D812A00302A
:100500004C06031DB42A0130CC000030CD00003071
:100510004B06031D8D2A00304A06031DA12A013017
:10052000CA000030CB0008303104F0003208F1007E
:100530000030F1047008B1007108B2007008850045
:10054000B42ACA01CB0108303105F0003208F100AD
:100550000030F1053108F0063208F1067008B100EC
:100560007108B20070088500B72ACC01CD01061FC2
:10057000F32A00303D06031DBF2A00303C06031D50
:10058000F22A0130BC000030BD0000303B06031DE4
:10059000CB2A00303A06031DDF2A0130BA000030B2
:1005A000BB0010303104F0003208F1000030F104DB
:1005B0007008B1007108B20070088500F22ABA0113
:1005C000BB0110303105F0003208F1000030F105B8
:1005D0003108F0063208F1067008B1007108B20067
:1005E00070088500F52ABC01BD01861E312B003044
:1005F0003906031DFD2A00303806031D302B01305B
:10060000B8000030B90000304306031D092B00304C
:100610004206031D1D2B0130C2000030C300043010
:100620003104F0003208F1000030F1047008B1002C
:100630007108B20070088500302BC201C30104307C
:100640003105F0003208F1000030F1053108F00604
:100650003208F1067008B1007108B2007008850018
:10066000332BB801B901061E512B00304106031D82
:100670003B2B00304006031D502B0130C0000030E2
:10068000C10000303F06031D472B00303E06031D0E
:100690004E2B0130BE000030BF00502BBE01BF0109
:0A06A000532BC001C1015A29542B4D
:10071400213084002F3083120313F0005A30E80094
:080724000330E9004C2108003C
:0406B40000340034DA
:0406B80000340034D6
:0406BC0000340034D2
:0406C00000340034CE
:0C06C400533474346134723474340034E4
:0406D00000340034BE
:0406D40000340034BA
:0606D8004F344B340034E6
:0406DE0000340034B0
:0406E20000340034AC
:0406E60000340034A8
:0406EA0000340034A4
:0406EE0000340034A0
:0406F200003400349C
:0406F6000034003498
:0406FA000034003494
:0406FE000034003490
:04070200003400348B
:040706000034003487
:04070A000034003483
:04070E00003400347F
:02400E004A2145
:00000001FF
