:020000003129A4
:10000800FF00030E8301E2000A08E1008A018B1C4D
:1000180013284914AA01AB018B10AC01AD010C1DCA
:100028001D280C110C100130A0000030A1008E0119
:100038008F0161088A00620E8300FF0E7F0E09009F
:100048008316031398182A280000242883126C08A2
:040058009900080003
:0E005C000030831203138C1A0130F0000800EC
:0E006A00831203134B088A004A088200080024
:10007800831203131A08F100981C44281812181642
:060088007108F000080001
:10008E0083160313981690308312980083168614E5
:10009E00061183128C1E56281A08F00050280800EC
:1000AE0083120313EB01690884000008EA006A0852
:1000BE00003A03196C286A08EC002420EB0A6B083E
:0C00CE00690784000008EA005E280800B2
:1000DA0083120313E701E80165080319AC286508D0
:1000EA00FF3A03197928E5032E207008003A031D08
:1000FA007F2879283C207008E60067086307840097
:10010A0070088000E70A6808640784000008660629
:10011A00031D9128E80A9928E80164088400000868
:10012A006606031D9928E80A68086407840000081F
:10013A00003A031DAB2868086702F000F101031CAE
:10014A00F1037008630784008001AF2871286308EF
:06015A0084008001080092
:100160008312031385018316850105148514051177
:100170008511051285120330860086110616861633
:100180000617861783128601831601178B100B162C
:100190008B170B1783128E018F0190121012901083
:1001A000101483160C148312971517119714171037
:1001B00083160C154B30831295009601333083164D
:1001C0009900181547200230FB000430FC00BA30BB
:1001D000FD00FD0BE928FC0BE928FB0BE9280000DA
:1001E0003030E90057200A30EC0024200D30EC00BC
:0401F00024200800BF
:1001F40083120313FB01FA01F9018030F800F10CBA
:10020400F00C031C0E297408F90775080318750F00
:10021400FA070318FB0A0310F01F16297408FA07DB
:1002240075080318750FFB07FB0CFA0CF90CF80C96
:10023400031C01297B08F3007A08F2007908F10015
:060244007808F00008003C
:10024A0035208A110A128000840ACA0A0319CB0AC5
:08025A00F003031D2529080033
:100262009223B0202E207008031943294C30E3005A
:100272003830E4001430E5006D204C30E90057209E
:100282004C08E0006008413A031D54290830430439
:10029200F0004408F1000030F1047008C300710856
:1002A200C400700885006008423A031D69290830BD
:1002B2004305F0004408F1000030F1054308F00660
:1002C2004408F1067008C3007108C4007008850074
:1002D2006008433A031D7A2910304304F0004408B1
:1002E200F1000030F1047008C3007108C400700806
:1002F20085006008443A031D8F2910304305F00041
:100302004408F1000030F1054308F0064408F10604
:100312007008C3007108C400700885006008453A7F
:10032200031DA02904304304F0004408F10000300A
:10033200F1047008C3007108C400700885006008E9
:10034200463A031DB52904304305F0004408F10084
:100352000030F1054308F0064408F1067008C300B6
:100362007108C400700885004C08533A031DD8294F
:1003720030304D02F000F101031CF1030A30F400A9
:100382000030F500FA2030304E02F200F301031C77
:10039200F3037208F00773080318013EF1077008AF
:1003A200BF007108C0007008A4007108A500E00138
:1003B20000302106031DDF2901302006031D582AC3
:1003C200A001A101491C582A00302506031DEB2972
:1003D20001302406031DFA2908304304F0004408C2
:1003E200F1000030F1047008C3007108C400700805
:1003F200850000302506031D002A00302406031D57
:10040200142A08304305F0004408F1000030F105D9
:100412004308F0064408F1067008C3007108C400DE
:1004220070088500582A80302B06F000803025069F
:100432007002031D1E2A24082A02031C2D2A0830DA
:100442004304F0004408F1000030F1047008C300D6
:100452007108C4007008850004302407F1002508E3
:100462000318013EF20080307206F00080302B0645
:100472007002031D3E2A2A0871020318552AAA0196
:10048200AB01491008304305F0004408F100003088
:10049200F1054308F0064408F1067008C30071082C
:1004A200C40070088500582AAA0A0319AB0A051C61
:1004B2006B2A00302906031D602A00302806031D1E
:1004C2006A2A0A30A4070318A50A0130A8000030DE
:1004D200A9006D2AA801A901851C802A00302706DF
:1004E200031D752A00302606031D7F2A0A30A40246
:1004F200031CA5030130A6000030A700822AA60132
:10050200A701861FBE2A00304606031D8A2A003034
:100512004506031DBD2A0130C5000030C60000306B
:100522004806031D962A00304706031DAA2A0130F9
:10053200C7000030C80008304304F0004408F1004E
:100542000030F1047008C3007108C400700885000F
:10055200BD2AC701C80108304305F0004408F10074
:100562000030F1054308F0064408F1067008C300A4
:100572007108C40070088500C02AC501C601061FA3
:10058200FC2A00302F06031DC82A00302E06031D48
:10059200FB2A0130AE000030AF0000302306031DFD
:1005A200D42A00302206031DE82A0130A2000030BE
:1005B200A30010304304F0004408F1000030F104BD
:1005C2007008C3007108C40070088500FB2AA201EC
:1005D200A30110304305F0004408F1000030F1059A
:1005E2004308F0064408F1067008C3007108C4000D
:1005F20070088500FE2AAE01AF01861E3A2B00303C
:100602003706031D062B00303606031D392B013039
:10061200B6000030B70000304206031D122B003036
:100622004106031D262B0130C1000030C2000430F8
:100632004304F0004408F1000030F1047008C300E4
:100642007108C40070088500392BC101C201043051
:100652004305F0004408F1000030F1054308F006BC
:100662004408F1067008C3007108C40070088500D0
:100672003C2BB601B701061E602B00303C06031D61
:10068200442B00303B06031D5F2B0130BB000030C2
:10069200BC0000303E06031D502B00303D06031DFA
:1006A200592B0130BD000030BE00A401A5015F2B13
:1006B200BD01BE010130A4000030A500622BBB01C8
:0606C200BC013329632B8B
:1007240020308400293083120313F0006930CA009A
:080734000330CB002521080071
:0406D20000340034BC
:0406D60000340034B8
:0406DA0000340034B4
:0406DE0000340034B0
:0406E20000340034AC
:0406E60000340034A8
:0406EA0000340034A4
:0406EE0000340034A0
:0C06F200533474346134723474340034B6
:0406FE000034003490
:060702004F344B340034BB
:040708000034003485
:04070C000034003481
:04071000003400347D
:040714000034003479
:040718000034003475
:04071C000034003471
:04072000003400346D
:02400E004A2145
:00000001FF
